{
  "_format": "hh-sol-artifact-1",
  "contractName": "Copyright",
  "sourceName": "contracts/Copyright.sol",
  "abi": [
    {
      "inputs": [
        {
          "internalType": "string",
          "name": "_songHash",
          "type": "string"
        }
      ],
      "name": "findUploadMusic",
      "outputs": [
        {
          "internalType": "bool",
          "name": "",
          "type": "bool"
        }
      ],
      "stateMutability": "view",
      "type": "function"
    },
    {
      "inputs": [
        {
          "internalType": "string",
          "name": "_artist",
          "type": "string"
        }
      ],
      "name": "getArtistMusicList",
      "outputs": [
        {
          "components": [
            {
              "internalType": "address",
              "name": "uploader",
              "type": "address"
            },
            {
              "internalType": "uint256",
              "name": "uploadTime",
              "type": "uint256"
            },
            {
              "internalType": "string",
              "name": "name",
              "type": "string"
            },
            {
              "internalType": "string",
              "name": "artist",
              "type": "string"
            },
            {
              "internalType": "string",
              "name": "songHash",
              "type": "string"
            }
          ],
          "internalType": "struct Copyright.Music[]",
          "name": "",
          "type": "tuple[]"
        }
      ],
      "stateMutability": "view",
      "type": "function"
    },
    {
      "inputs": [
        {
          "internalType": "string",
          "name": "_name",
          "type": "string"
        },
        {
          "internalType": "string",
          "name": "_artist",
          "type": "string"
        }
      ],
      "name": "getMusic",
      "outputs": [
        {
          "components": [
            {
              "internalType": "address",
              "name": "uploader",
              "type": "address"
            },
            {
              "internalType": "uint256",
              "name": "uploadTime",
              "type": "uint256"
            },
            {
              "internalType": "string",
              "name": "name",
              "type": "string"
            },
            {
              "internalType": "string",
              "name": "artist",
              "type": "string"
            },
            {
              "internalType": "string",
              "name": "songHash",
              "type": "string"
            }
          ],
          "internalType": "struct Copyright.Music",
          "name": "",
          "type": "tuple"
        }
      ],
      "stateMutability": "view",
      "type": "function"
    },
    {
      "inputs": [
        {
          "internalType": "string",
          "name": "_name",
          "type": "string"
        }
      ],
      "name": "getMusicArtistList",
      "outputs": [
        {
          "components": [
            {
              "internalType": "address",
              "name": "uploader",
              "type": "address"
            },
            {
              "internalType": "uint256",
              "name": "uploadTime",
              "type": "uint256"
            },
            {
              "internalType": "string",
              "name": "name",
              "type": "string"
            },
            {
              "internalType": "string",
              "name": "artist",
              "type": "string"
            },
            {
              "internalType": "string",
              "name": "songHash",
              "type": "string"
            }
          ],
          "internalType": "struct Copyright.Music[]",
          "name": "",
          "type": "tuple[]"
        }
      ],
      "stateMutability": "view",
      "type": "function"
    },
    {
      "inputs": [],
      "name": "getMusicList",
      "outputs": [
        {
          "components": [
            {
              "internalType": "address",
              "name": "uploader",
              "type": "address"
            },
            {
              "internalType": "uint256",
              "name": "uploadTime",
              "type": "uint256"
            },
            {
              "internalType": "string",
              "name": "name",
              "type": "string"
            },
            {
              "internalType": "string",
              "name": "artist",
              "type": "string"
            },
            {
              "internalType": "string",
              "name": "songHash",
              "type": "string"
            }
          ],
          "internalType": "struct Copyright.Music[]",
          "name": "",
          "type": "tuple[]"
        }
      ],
      "stateMutability": "view",
      "type": "function"
    },
    {
      "inputs": [],
      "name": "getUploadMusicList",
      "outputs": [
        {
          "internalType": "string[]",
          "name": "",
          "type": "string[]"
        }
      ],
      "stateMutability": "view",
      "type": "function"
    },
    {
      "inputs": [],
      "name": "getUserInfo",
      "outputs": [
        {
          "components": [
            {
              "internalType": "string[]",
              "name": "upload_music_list",
              "type": "string[]"
            },
            {
              "internalType": "bool",
              "name": "isValid",
              "type": "bool"
            }
          ],
          "internalType": "struct Copyright.User",
          "name": "",
          "type": "tuple"
        }
      ],
      "stateMutability": "view",
      "type": "function"
    },
    {
      "inputs": [
        {
          "internalType": "string",
          "name": "_name",
          "type": "string"
        },
        {
          "internalType": "string",
          "name": "_artist",
          "type": "string"
        }
      ],
      "name": "musicExists",
      "outputs": [
        {
          "internalType": "bool",
          "name": "",
          "type": "bool"
        }
      ],
      "stateMutability": "view",
      "type": "function"
    },
    {
      "inputs": [
        {
          "internalType": "string",
          "name": "_songHash",
          "type": "string"
        },
        {
          "internalType": "string",
          "name": "_name",
          "type": "string"
        },
        {
          "internalType": "string",
          "name": "_artist",
          "type": "string"
        }
      ],
      "name": "uploadMusic",
      "outputs": [],
      "stateMutability": "nonpayable",
      "type": "function"
    },
    {
      "inputs": [
        {
          "internalType": "string",
          "name": "_songHash",
          "type": "string"
        },
        {
          "internalType": "string",
          "name": "_name",
          "type": "string"
        },
        {
          "internalType": "string",
          "name": "_artist",
          "type": "string"
        },
        {
          "internalType": "address",
          "name": "uploader_addr",
          "type": "address"
        }
      ],
      "name": "uploadMusic_batch",
      "outputs": [],
      "stateMutability": "nonpayable",
      "type": "function"
    },
    {
      "inputs": [],
      "name": "userExists",
      "outputs": [
        {
          "internalType": "bool",
          "name": "",
          "type": "bool"
        }
      ],
      "stateMutability": "view",
      "type": "function"
    }
  ],
  "bytecode": "0x608060405234801561001057600080fd5b506129c5806100206000396000f3fe608060405234801561001057600080fd5b50600436106100a95760003560e01c80637fb95448116100715780637fb954481461015257806380f3de6514610182578063a5978964146101b2578063e90fd8e7146101e2578063eae6d4da14610212578063ffda283514610230576100a9565b8063048e438b146100ae578063209af2dd146100ca5780634d655422146100fa5780635d8d15851461011657806360b377b814610134575b600080fd5b6100c860048036038101906100c39190611eeb565b61024e565b005b6100e460048036038101906100df9190611f92565b61070b565b6040516100f191906121fa565b60405180910390f35b610114600480360381019061010f9190612248565b6109a4565b005b61011e610e62565b60405161012b919061241d565b60405180910390f35b61013c610fad565b60405161014991906124c5565b60405180910390f35b61016c600480360381019061016791906124e7565b6110c6565b60405161017991906125e3565b60405180910390f35b61019c60048036038101906101979190611f92565b611337565b6040516101a99190612614565b60405180910390f35b6101cc60048036038101906101c791906124e7565b611522565b6040516101d99190612614565b60405180910390f35b6101fc60048036038101906101f79190611f92565b6117cb565b60405161020991906121fa565b60405180910390f35b61021a611a64565b6040516102279190612614565b60405180910390f35b610238611abb565b60405161024591906121fa565b60405180910390f35b60006040518060a001604052803373ffffffffffffffffffffffffffffffffffffffff168152602001428152602001848152602001838152602001858152509050600081908060018154018082558091505060019003906000526020600020906005020160009091909190915060008201518160000160006101000a81548173ffffffffffffffffffffffffffffffffffffffff021916908373ffffffffffffffffffffffffffffffffffffffff160217905550602082015181600101556040820151816002019081610321919061283b565b506060820151816003019081610337919061283b565b50608082015181600401908161034d919061283b565b505050806003846040516103619190612949565b90815260200160405180910390208360405161037d9190612949565b908152602001604051809103902060008201518160000160006101000a81548173ffffffffffffffffffffffffffffffffffffffff021916908373ffffffffffffffffffffffffffffffffffffffff1602179055506020820151816001015560408201518160020190816103f1919061283b565b506060820151816003019081610407919061283b565b50608082015181600401908161041d919061283b565b50905050806002856040516104329190612949565b908152602001604051809103902060008201518160000160006101000a81548173ffffffffffffffffffffffffffffffffffffffff021916908373ffffffffffffffffffffffffffffffffffffffff1602179055506020820151816001015560408201518160020190816104a6919061283b565b5060608201518160030190816104bc919061283b565b5060808201518160040190816104d2919061283b565b509050506004836040516104e69190612949565b908152602001604051809103902081908060018154018082558091505060019003906000526020600020906005020160009091909190915060008201518160000160006101000a81548173ffffffffffffffffffffffffffffffffffffffff021916908373ffffffffffffffffffffffffffffffffffffffff160217905550602082015181600101556040820151816002019081610584919061283b565b50606082015181600301908161059a919061283b565b5060808201518160040190816105b0919061283b565b5050506005826040516105c39190612949565b908152602001604051809103902081908060018154018082558091505060019003906000526020600020906005020160009091909190915060008201518160000160006101000a81548173ffffffffffffffffffffffffffffffffffffffff021916908373ffffffffffffffffffffffffffffffffffffffff160217905550602082015181600101556040820151816002019081610661919061283b565b506060820151816003019081610677919061283b565b50608082015181600401908161068d919061283b565b505050600160003373ffffffffffffffffffffffffffffffffffffffff1673ffffffffffffffffffffffffffffffffffffffff16815260200190815260200160002060000184908060018154018082558091505060019003906000526020600020016000909190919091509081610704919061283b565b5050505050565b6060600060048360405161071f9190612949565b9081526020016040518091039020805480602002602001604051908101604052809291908181526020016000905b8282101561099557838290600052602060002090600502016040518060a00160405290816000820160009054906101000a900473ffffffffffffffffffffffffffffffffffffffff1673ffffffffffffffffffffffffffffffffffffffff1673ffffffffffffffffffffffffffffffffffffffff168152602001600182015481526020016002820180546107e09061265e565b80601f016020809104026020016040519081016040528092919081815260200182805461080c9061265e565b80156108595780601f1061082e57610100808354040283529160200191610859565b820191906000526020600020905b81548152906001019060200180831161083c57829003601f168201915b505050505081526020016003820180546108729061265e565b80601f016020809104026020016040519081016040528092919081815260200182805461089e9061265e565b80156108eb5780601f106108c0576101008083540402835291602001916108eb565b820191906000526020600020905b8154815290600101906020018083116108ce57829003601f168201915b505050505081526020016004820180546109049061265e565b80601f01602080910402602001604051908101604052809291908181526020018280546109309061265e565b801561097d5780601f106109525761010080835404028352916020019161097d565b820191906000526020600020905b81548152906001019060200180831161096057829003601f168201915b5050505050815250508152602001906001019061074d565b50505050905080915050919050565b60006040518060a001604052808373ffffffffffffffffffffffffffffffffffffffff168152602001428152602001858152602001848152602001868152509050600081908060018154018082558091505060019003906000526020600020906005020160009091909190915060008201518160000160006101000a81548173ffffffffffffffffffffffffffffffffffffffff021916908373ffffffffffffffffffffffffffffffffffffffff160217905550602082015181600101556040820151816002019081610a77919061283b565b506060820151816003019081610a8d919061283b565b506080820151816004019081610aa3919061283b565b50505080600385604051610ab79190612949565b908152602001604051809103902084604051610ad39190612949565b908152602001604051809103902060008201518160000160006101000a81548173ffffffffffffffffffffffffffffffffffffffff021916908373ffffffffffffffffffffffffffffffffffffffff160217905550602082015181600101556040820151816002019081610b47919061283b565b506060820151816003019081610b5d919061283b565b506080820151816004019081610b73919061283b565b5090505080600286604051610b889190612949565b908152602001604051809103902060008201518160000160006101000a81548173ffffffffffffffffffffffffffffffffffffffff021916908373ffffffffffffffffffffffffffffffffffffffff160217905550602082015181600101556040820151816002019081610bfc919061283b565b506060820151816003019081610c12919061283b565b506080820151816004019081610c28919061283b565b50905050600484604051610c3c9190612949565b908152602001604051809103902081908060018154018082558091505060019003906000526020600020906005020160009091909190915060008201518160000160006101000a81548173ffffffffffffffffffffffffffffffffffffffff021916908373ffffffffffffffffffffffffffffffffffffffff160217905550602082015181600101556040820151816002019081610cda919061283b565b506060820151816003019081610cf0919061283b565b506080820151816004019081610d06919061283b565b505050600583604051610d199190612949565b908152602001604051809103902081908060018154018082558091505060019003906000526020600020906005020160009091909190915060008201518160000160006101000a81548173ffffffffffffffffffffffffffffffffffffffff021916908373ffffffffffffffffffffffffffffffffffffffff160217905550602082015181600101556040820151816002019081610db7919061283b565b506060820151816003019081610dcd919061283b565b506080820151816004019081610de3919061283b565b505050600160008373ffffffffffffffffffffffffffffffffffffffff1673ffffffffffffffffffffffffffffffffffffffff16815260200190815260200160002060000185908060018154018082558091505060019003906000526020600020016000909190919091509081610e5a919061283b565b505050505050565b610e6a611d30565b600160003373ffffffffffffffffffffffffffffffffffffffff1673ffffffffffffffffffffffffffffffffffffffff16815260200190815260200160002060405180604001604052908160008201805480602002602001604051908101604052809291908181526020016000905b82821015610f85578382906000526020600020018054610ef89061265e565b80601f0160208091040260200160405190810160405280929190818152602001828054610f249061265e565b8015610f715780601f10610f4657610100808354040283529160200191610f71565b820191906000526020600020905b815481529060010190602001808311610f5457829003601f168201915b505050505081526020019060010190610ed9565b5050505081526020016001820160009054906101000a900460ff161515151581525050905090565b6060600160003373ffffffffffffffffffffffffffffffffffffffff1673ffffffffffffffffffffffffffffffffffffffff168152602001908152602001600020600001805480602002602001604051908101604052809291908181526020016000905b828210156110bd5783829060005260206000200180546110309061265e565b80601f016020809104026020016040519081016040528092919081815260200182805461105c9061265e565b80156110a95780601f1061107e576101008083540402835291602001916110a9565b820191906000526020600020905b81548152906001019060200180831161108c57829003601f168201915b505050505081526020019060010190611011565b50505050905090565b6110ce611d4c565b60006003846040516110e09190612949565b9081526020016040518091039020836040516110fc9190612949565b90815260200160405180910390206040518060a00160405290816000820160009054906101000a900473ffffffffffffffffffffffffffffffffffffffff1673ffffffffffffffffffffffffffffffffffffffff1673ffffffffffffffffffffffffffffffffffffffff168152602001600182015481526020016002820180546111859061265e565b80601f01602080910402602001604051908101604052809291908181526020018280546111b19061265e565b80156111fe5780601f106111d3576101008083540402835291602001916111fe565b820191906000526020600020905b8154815290600101906020018083116111e157829003601f168201915b505050505081526020016003820180546112179061265e565b80601f01602080910402602001604051908101604052809291908181526020018280546112439061265e565b80156112905780601f1061126557610100808354040283529160200191611290565b820191906000526020600020905b81548152906001019060200180831161127357829003601f168201915b505050505081526020016004820180546112a99061265e565b80601f01602080910402602001604051908101604052809291908181526020018280546112d59061265e565b80156113225780601f106112f757610100808354040283529160200191611322565b820191906000526020600020905b81548152906001019060200180831161130557829003601f168201915b50505050508152505090508091505092915050565b600080600160003373ffffffffffffffffffffffffffffffffffffffff1673ffffffffffffffffffffffffffffffffffffffff16815260200190815260200160002060405180604001604052908160008201805480602002602001604051908101604052809291908181526020016000905b828210156114555783829060005260206000200180546113c89061265e565b80601f01602080910402602001604051908101604052809291908181526020018280546113f49061265e565b80156114415780601f1061141657610100808354040283529160200191611441565b820191906000526020600020905b81548152906001019060200180831161142457829003601f168201915b5050505050815260200190600101906113a9565b5050505081526020016001820160009054906101000a900460ff161515151581525050905060008160000151905060005b8151811015611515578181815181106114a2576114a1612960565b5b60200260200101516040516020016114ba9190612949565b60405160208183030381529060405280519060200120856040516020016114e19190612949565b6040516020818303038152906040528051906020012003611508576001935050505061151d565b8080600101915050611486565b506000925050505b919050565b6000806003846040516115359190612949565b9081526020016040518091039020836040516115519190612949565b90815260200160405180910390206040518060a00160405290816000820160009054906101000a900473ffffffffffffffffffffffffffffffffffffffff1673ffffffffffffffffffffffffffffffffffffffff1673ffffffffffffffffffffffffffffffffffffffff168152602001600182015481526020016002820180546115da9061265e565b80601f01602080910402602001604051908101604052809291908181526020018280546116069061265e565b80156116535780601f1061162857610100808354040283529160200191611653565b820191906000526020600020905b81548152906001019060200180831161163657829003601f168201915b5050505050815260200160038201805461166c9061265e565b80601f01602080910402602001604051908101604052809291908181526020018280546116989061265e565b80156116e55780601f106116ba576101008083540402835291602001916116e5565b820191906000526020600020905b8154815290600101906020018083116116c857829003601f168201915b505050505081526020016004820180546116fe9061265e565b80601f016020809104026020016040519081016040528092919081815260200182805461172a9061265e565b80156117775780601f1061174c57610100808354040283529160200191611777565b820191906000526020600020905b81548152906001019060200180831161175a57829003601f168201915b505050505081525050905060008160000151905060008073ffffffffffffffffffffffffffffffffffffffff168273ffffffffffffffffffffffffffffffffffffffff161415905080935050505092915050565b606060006005836040516117df9190612949565b9081526020016040518091039020805480602002602001604051908101604052809291908181526020016000905b82821015611a5557838290600052602060002090600502016040518060a00160405290816000820160009054906101000a900473ffffffffffffffffffffffffffffffffffffffff1673ffffffffffffffffffffffffffffffffffffffff1673ffffffffffffffffffffffffffffffffffffffff168152602001600182015481526020016002820180546118a09061265e565b80601f01602080910402602001604051908101604052809291908181526020018280546118cc9061265e565b80156119195780601f106118ee57610100808354040283529160200191611919565b820191906000526020600020905b8154815290600101906020018083116118fc57829003601f168201915b505050505081526020016003820180546119329061265e565b80601f016020809104026020016040519081016040528092919081815260200182805461195e9061265e565b80156119ab5780601f10611980576101008083540402835291602001916119ab565b820191906000526020600020905b81548152906001019060200180831161198e57829003601f168201915b505050505081526020016004820180546119c49061265e565b80601f01602080910402602001604051908101604052809291908181526020018280546119f09061265e565b8015611a3d5780601f10611a1257610100808354040283529160200191611a3d565b820191906000526020600020905b815481529060010190602001808311611a2057829003601f168201915b5050505050815250508152602001906001019061180d565b50505050905080915050919050565b6000600160003373ffffffffffffffffffffffffffffffffffffffff1673ffffffffffffffffffffffffffffffffffffffff16815260200190815260200160002060010160009054906101000a900460ff16905090565b60606000805480602002602001604051908101604052809291908181526020016000905b82821015611d2757838290600052602060002090600502016040518060a00160405290816000820160009054906101000a900473ffffffffffffffffffffffffffffffffffffffff1673ffffffffffffffffffffffffffffffffffffffff1673ffffffffffffffffffffffffffffffffffffffff16815260200160018201548152602001600282018054611b729061265e565b80601f0160208091040260200160405190810160405280929190818152602001828054611b9e9061265e565b8015611beb5780601f10611bc057610100808354040283529160200191611beb565b820191906000526020600020905b815481529060010190602001808311611bce57829003601f168201915b50505050508152602001600382018054611c049061265e565b80601f0160208091040260200160405190810160405280929190818152602001828054611c309061265e565b8015611c7d5780601f10611c5257610100808354040283529160200191611c7d565b820191906000526020600020905b815481529060010190602001808311611c6057829003601f168201915b50505050508152602001600482018054611c969061265e565b80601f0160208091040260200160405190810160405280929190818152602001828054611cc29061265e565b8015611d0f5780601f10611ce457610100808354040283529160200191611d0f565b820191906000526020600020905b815481529060010190602001808311611cf257829003601f168201915b50505050508152505081526020019060010190611adf565b50505050905090565b6040518060400160405280606081526020016000151581525090565b6040518060a00160405280600073ffffffffffffffffffffffffffffffffffffffff168152602001600081526020016060815260200160608152602001606081525090565b6000604051905090565b600080fd5b600080fd5b600080fd5b600080fd5b6000601f19601f8301169050919050565b7f4e487b7100000000000000000000000000000000000000000000000000000000600052604160045260246000fd5b611df882611daf565b810181811067ffffffffffffffff82111715611e1757611e16611dc0565b5b80604052505050565b6000611e2a611d91565b9050611e368282611def565b919050565b600067ffffffffffffffff821115611e5657611e55611dc0565b5b611e5f82611daf565b9050602081019050919050565b82818337600083830152505050565b6000611e8e611e8984611e3b565b611e20565b905082815260208101848484011115611eaa57611ea9611daa565b5b611eb5848285611e6c565b509392505050565b600082601f830112611ed257611ed1611da5565b5b8135611ee2848260208601611e7b565b91505092915050565b600080600060608486031215611f0457611f03611d9b565b5b600084013567ffffffffffffffff811115611f2257611f21611da0565b5b611f2e86828701611ebd565b935050602084013567ffffffffffffffff811115611f4f57611f4e611da0565b5b611f5b86828701611ebd565b925050604084013567ffffffffffffffff811115611f7c57611f7b611da0565b5b611f8886828701611ebd565b9150509250925092565b600060208284031215611fa857611fa7611d9b565b5b600082013567ffffffffffffffff811115611fc657611fc5611da0565b5b611fd284828501611ebd565b91505092915050565b600081519050919050565b600082825260208201905092915050565b6000819050602082019050919050565b600073ffffffffffffffffffffffffffffffffffffffff82169050919050565b600061203282612007565b9050919050565b61204281612027565b82525050565b6000819050919050565b61205b81612048565b82525050565b600081519050919050565b600082825260208201905092915050565b60005b8381101561209b578082015181840152602081019050612080565b60008484015250505050565b60006120b282612061565b6120bc818561206c565b93506120cc81856020860161207d565b6120d581611daf565b840191505092915050565b600060a0830160008301516120f86000860182612039565b50602083015161210b6020860182612052565b506040830151848203604086015261212382826120a7565b9150506060830151848203606086015261213d82826120a7565b9150506080830151848203608086015261215782826120a7565b9150508091505092915050565b600061217083836120e0565b905092915050565b6000602082019050919050565b600061219082611fdb565b61219a8185611fe6565b9350836020820285016121ac85611ff7565b8060005b858110156121e857848403895281516121c98582612164565b94506121d483612178565b925060208a019950506001810190506121b0565b50829750879550505050505092915050565b600060208201905081810360008301526122148184612185565b905092915050565b61222581612027565b811461223057600080fd5b50565b6000813590506122428161221c565b92915050565b6000806000806080858703121561226257612261611d9b565b5b600085013567ffffffffffffffff8111156122805761227f611da0565b5b61228c87828801611ebd565b945050602085013567ffffffffffffffff8111156122ad576122ac611da0565b5b6122b987828801611ebd565b935050604085013567ffffffffffffffff8111156122da576122d9611da0565b5b6122e687828801611ebd565b92505060606122f787828801612233565b91505092959194509250565b600081519050919050565b600082825260208201905092915050565b6000819050602082019050919050565b600061233b83836120a7565b905092915050565b6000602082019050919050565b600061235b82612303565b612365818561230e565b9350836020820285016123778561231f565b8060005b858110156123b35784840389528151612394858261232f565b945061239f83612343565b925060208a0199505060018101905061237b565b50829750879550505050505092915050565b60008115159050919050565b6123da816123c5565b82525050565b600060408301600083015184820360008601526123fd8282612350565b915050602083015161241260208601826123d1565b508091505092915050565b6000602082019050818103600083015261243781846123e0565b905092915050565b600082825260208201905092915050565b600061245b82612303565b612465818561243f565b9350836020820285016124778561231f565b8060005b858110156124b35784840389528151612494858261232f565b945061249f83612343565b925060208a0199505060018101905061247b565b50829750879550505050505092915050565b600060208201905081810360008301526124df8184612450565b905092915050565b600080604083850312156124fe576124fd611d9b565b5b600083013567ffffffffffffffff81111561251c5761251b611da0565b5b61252885828601611ebd565b925050602083013567ffffffffffffffff81111561254957612548611da0565b5b61255585828601611ebd565b9150509250929050565b600060a0830160008301516125776000860182612039565b50602083015161258a6020860182612052565b50604083015184820360408601526125a282826120a7565b915050606083015184820360608601526125bc82826120a7565b915050608083015184820360808601526125d682826120a7565b9150508091505092915050565b600060208201905081810360008301526125fd818461255f565b905092915050565b61260e816123c5565b82525050565b60006020820190506126296000830184612605565b92915050565b7f4e487b7100000000000000000000000000000000000000000000000000000000600052602260045260246000fd5b6000600282049050600182168061267657607f821691505b6020821081036126895761268861262f565b5b50919050565b60008190508160005260206000209050919050565b60006020601f8301049050919050565b600082821b905092915050565b6000600883026126f17fffffffffffffffffffffffffffffffffffffffffffffffffffffffffffffffff826126b4565b6126fb86836126b4565b95508019841693508086168417925050509392505050565b6000819050919050565b600061273861273361272e84612048565b612713565b612048565b9050919050565b6000819050919050565b6127528361271d565b61276661275e8261273f565b8484546126c1565b825550505050565b600090565b61277b61276e565b612786818484612749565b505050565b5b818110156127aa5761279f600082612773565b60018101905061278c565b5050565b601f8211156127ef576127c08161268f565b6127c9846126a4565b810160208510156127d8578190505b6127ec6127e4856126a4565b83018261278b565b50505b505050565b600082821c905092915050565b6000612812600019846008026127f4565b1980831691505092915050565b600061282b8383612801565b9150826002028217905092915050565b61284482612061565b67ffffffffffffffff81111561285d5761285c611dc0565b5b612867825461265e565b6128728282856127ae565b600060209050601f8311600181146128a55760008415612893578287015190505b61289d858261281f565b865550612905565b601f1984166128b38661268f565b60005b828110156128db578489015182556001820191506020850194506020810190506128b6565b868310156128f857848901516128f4601f891682612801565b8355505b6001600288020188555050505b505050505050565b600081905092915050565b600061292382612061565b61292d818561290d565b935061293d81856020860161207d565b80840191505092915050565b60006129558284612918565b915081905092915050565b7f4e487b7100000000000000000000000000000000000000000000000000000000600052603260045260246000fdfea2646970667358221220b8ab5ec1f60457bbe1618f2f9375d21e859c9c2058fc2ef4a78a90ca3986903764736f6c63430008180033",
  "linkReferences": {},
  "deployedLinkReferences": {}
}