{
  "_format": "hh-sol-artifact-1",
  "contractName": "Copyright",
  "sourceName": "contracts/Copyright.sol",
  "abi": [
    {
      "inputs": [],
      "name": "CONTRACT_OWNER",
      "outputs": [
        {
          "internalType": "address",
          "name": "",
          "type": "address"
        }
      ],
      "stateMutability": "view",
      "type": "function"
    },
    {
      "inputs": [
        {
          "internalType": "address",
          "name": "publicAddress",
          "type": "address"
        }
      ],
      "name": "addToAllowedWallet",
      "outputs": [
        {
          "internalType": "bool",
          "name": "",
          "type": "bool"
        }
      ],
      "stateMutability": "nonpayable",
      "type": "function"
    },
    {
      "inputs": [
        {
          "internalType": "string",
          "name": "song_hash",
          "type": "string"
        },
        {
          "internalType": "uint64",
          "name": "income",
          "type": "uint64"
        }
      ],
      "name": "distributeSongFund",
      "outputs": [
        {
          "internalType": "uint64[]",
          "name": "",
          "type": "uint64[]"
        }
      ],
      "stateMutability": "view",
      "type": "function"
    },
    {
      "inputs": [
        {
          "internalType": "string",
          "name": "song_hash",
          "type": "string"
        }
      ],
      "name": "getSongByHash",
      "outputs": [
        {
          "components": [
            {
              "internalType": "address[]",
              "name": "song_shareholders",
              "type": "address[]"
            },
            {
              "internalType": "uint256",
              "name": "upload_time",
              "type": "uint256"
            },
            {
              "internalType": "string",
              "name": "title",
              "type": "string"
            },
            {
              "internalType": "string",
              "name": "song_hash",
              "type": "string"
            },
            {
              "internalType": "uint64[]",
              "name": "weights",
              "type": "uint64[]"
            }
          ],
          "internalType": "struct Copyright.Music",
          "name": "",
          "type": "tuple"
        }
      ],
      "stateMutability": "view",
      "type": "function"
    },
    {
      "inputs": [],
      "name": "getUploadedSongs",
      "outputs": [
        {
          "components": [
            {
              "internalType": "address[]",
              "name": "song_shareholders",
              "type": "address[]"
            },
            {
              "internalType": "uint256",
              "name": "upload_time",
              "type": "uint256"
            },
            {
              "internalType": "string",
              "name": "title",
              "type": "string"
            },
            {
              "internalType": "string",
              "name": "song_hash",
              "type": "string"
            },
            {
              "internalType": "uint64[]",
              "name": "weights",
              "type": "uint64[]"
            }
          ],
          "internalType": "struct Copyright.Music[]",
          "name": "",
          "type": "tuple[]"
        }
      ],
      "stateMutability": "view",
      "type": "function"
    },
    {
      "inputs": [
        {
          "internalType": "address",
          "name": "publicAddress",
          "type": "address"
        }
      ],
      "name": "removeFromAllowedWallet",
      "outputs": [
        {
          "internalType": "bool",
          "name": "",
          "type": "bool"
        }
      ],
      "stateMutability": "nonpayable",
      "type": "function"
    },
    {
      "inputs": [
        {
          "internalType": "string",
          "name": "song_hash",
          "type": "string"
        },
        {
          "internalType": "string",
          "name": "title",
          "type": "string"
        },
        {
          "internalType": "string[]",
          "name": "collaborator",
          "type": "string[]"
        },
        {
          "internalType": "address[]",
          "name": "song_shareholders",
          "type": "address[]"
        },
        {
          "internalType": "uint64[]",
          "name": "weights",
          "type": "uint64[]"
        }
      ],
      "name": "uploadMusic",
      "outputs": [],
      "stateMutability": "nonpayable",
      "type": "function"
    }
  ],
  "bytecode": "0x608060405234801561001057600080fd5b50611bec806100206000396000f3fe608060405234801561001057600080fd5b506004361061007d5760003560e01c8063729c8cbd1161005b578063729c8cbd146100e35780639b9eb69f14610103578063a40fb17314610116578063fd301c491461012b57600080fd5b806351442551146100825780635d148f6a146100975780636e8aa4ed146100c0575b600080fd5b6100956100903660046112b7565b61016b565b005b6100aa6100a53660046113f4565b610610565b6040516100b791906114d4565b60405180910390f35b6100d36100ce366004611522565b6109b5565b60405190151581526020016100b7565b6100f66100f136600461155f565b610ac5565b6040516100b7919061170a565b6100d3610111366004611522565b610d48565b61011e610e50565b6040516100b7919061171d565b610146737c3e27a2317849a126847de19a50e0cbfc2a3b5a81565b60405173ffffffffffffffffffffffffffffffffffffffff90911681526020016100b7565b33600090815260026020526040902060019081015460ff16151514806101a4575033737c3e27a2317849a126847de19a50e0cbfc2a3b5a145b610235576040517f08c379a000000000000000000000000000000000000000000000000000000000815260206004820152603160248201527f596f7520646f6e742068617665207065726d697373696f6e20746f207065726660448201527f6f726d20737563682066756e6374696f6e00000000000000000000000000000060648201526084015b60405180910390fd5b6040805160c060208602808301820190935260a082018681526000938392899189918291908601908490808284376000920191909152505050908252504260208083019190915260408051601f8d0183900483028101830182528c8152920191908c908c9081908401838280828437600092019190915250505090825250604080516020601f8f018190048102820181019092528d815291810191908e908e908190840183828082843760009201919091525050509082525060408051602086810282810182019093528682529283019290918791879182918501908490808284376000920191909152505050915250604051909150819060039061033d908e908e9061179f565b908152602001604051809103902060008201518160000190805190602001906103679291906110d8565b5060208201516001820155604082015160028201906103869082611853565b506060820151600382019061039b9082611853565b50608082015180516103b7916004840191602090910190611162565b50506001805480820182556000919091528251805184935060059092027fb10e2d527612073b26eecdfd717e6a320cf44b4afac2b0732d9fcbe2b7fa0cf60191610409918391602091909101906110d8565b5060208201516001820155604082015160028201906104289082611853565b506060820151600382019061043d9082611853565b5060808201518051610459916004840191602090910190611162565b50505060005b63ffffffff8116851115610602576002600087878463ffffffff168181106104895761048961196d565b905060200201602081019061049e9190611522565b73ffffffffffffffffffffffffffffffffffffffff168152602081019190915260400160002080546104cf906117af565b90506000036105f05787878263ffffffff168181106104f0576104f061196d565b9050602002810190610502919061199c565b6002600089898663ffffffff1681811061051e5761051e61196d565b90506020020160208101906105339190611522565b73ffffffffffffffffffffffffffffffffffffffff168152602081019190915260400160002091610565919083611a01565b5060006002600088888563ffffffff168181106105845761058461196d565b90506020020160208101906105999190611522565b73ffffffffffffffffffffffffffffffffffffffff168152602081019190915260400160002060010180547fffffffffffffffffffffffffffffffffffffffffffffffffffffffffffffff00169115159190911790555b806105fa81611b4b565b91505061045f565b505050505050505050505050565b606033737c3e27a2317849a126847de19a50e0cbfc2a3b5a1461068f576040517f08c379a000000000000000000000000000000000000000000000000000000000815260206004820152601a60248201527f596f7520617265206e6f7420636f6e7472616374206f776e6572000000000000604482015260640161022c565b60006003846040516106a19190611b6e565b908152604080519182900360209081018320805460c09281028501830190935260a084018381529092849284919084018282801561071557602002820191906000526020600020905b815473ffffffffffffffffffffffffffffffffffffffff1681526001909101906020018083116106ea575b5050505050815260200160018201548152602001600282018054610738906117af565b80601f0160208091040260200160405190810160405280929190818152602001828054610764906117af565b80156107b15780601f10610786576101008083540402835291602001916107b1565b820191906000526020600020905b81548152906001019060200180831161079457829003601f168201915b505050505081526020016003820180546107ca906117af565b80601f01602080910402602001604051908101604052809291908181526020018280546107f6906117af565b80156108435780601f1061081857610100808354040283529160200191610843565b820191906000526020600020905b81548152906001019060200180831161082657829003601f168201915b50505050508152602001600482018054806020026020016040519081016040528092919081815260200182805480156108cf57602002820191906000526020600020906000905b82829054906101000a900467ffffffffffffffff1667ffffffffffffffff168152602001906008019060208260070104928301926001038202915080841161088a5790505b5050505050815250509050600081608001515167ffffffffffffffff8111156108fa576108fa6113a8565b604051908082528060200260200182016040528015610923578160200160208202803683370190505b50905060005b8260800151518163ffffffff1610156109ac5782608001518163ffffffff16815181106109585761095861196d565b60200260200101518561096b9190611b8a565b828263ffffffff16815181106109835761098361196d565b67ffffffffffffffff909216602092830291909101909101526109a581611b4b565b9050610929565b50949350505050565b600033737c3e27a2317849a126847de19a50e0cbfc2a3b5a14610a34576040517f08c379a000000000000000000000000000000000000000000000000000000000815260206004820152601a60248201527f596f7520617265206e6f7420636f6e7472616374206f776e6572000000000000604482015260640161022c565b73ffffffffffffffffffffffffffffffffffffffff8216600090815260026020526040902060019081015460ff1615159003610abd575073ffffffffffffffffffffffffffffffffffffffff166000908152600260205260409020600190810180547fffffffffffffffffffffffffffffffffffffffffffffffffffffffffffffff0016905590565b506000919050565b610af76040518060a0016040528060608152602001600081526020016060815260200160608152602001606081525090565b60038383604051610b0992919061179f565b908152604080519182900360209081018320805460c09281028501830190935260a0840183815290928492849190840182828015610b7d57602002820191906000526020600020905b815473ffffffffffffffffffffffffffffffffffffffff168152600190910190602001808311610b52575b5050505050815260200160018201548152602001600282018054610ba0906117af565b80601f0160208091040260200160405190810160405280929190818152602001828054610bcc906117af565b8015610c195780601f10610bee57610100808354040283529160200191610c19565b820191906000526020600020905b815481529060010190602001808311610bfc57829003601f168201915b50505050508152602001600382018054610c32906117af565b80601f0160208091040260200160405190810160405280929190818152602001828054610c5e906117af565b8015610cab5780601f10610c8057610100808354040283529160200191610cab565b820191906000526020600020905b815481529060010190602001808311610c8e57829003601f168201915b5050505050815260200160048201805480602002602001604051908101604052809291908181526020018280548015610d3757602002820191906000526020600020906000905b82829054906101000a900467ffffffffffffffff1667ffffffffffffffff1681526020019060080190602082600701049283019260010382029150808411610cf25790505b505050505081525050905092915050565b600033737c3e27a2317849a126847de19a50e0cbfc2a3b5a14610dc7576040517f08c379a000000000000000000000000000000000000000000000000000000000815260206004820152601a60248201527f596f7520617265206e6f7420636f6e7472616374206f776e6572000000000000604482015260640161022c565b73ffffffffffffffffffffffffffffffffffffffff821660009081526002602052604081206001015460ff1615159003610abd575073ffffffffffffffffffffffffffffffffffffffff166000908152600260205260409020600190810180547fffffffffffffffffffffffffffffffffffffffffffffffffffffffffffffff00168217905590565b60606001805480602002602001604051908101604052809291908181526020016000905b828210156110cf57838290600052602060002090600502016040518060a001604052908160008201805480602002602001604051908101604052809291908181526020018280548015610efd57602002820191906000526020600020905b815473ffffffffffffffffffffffffffffffffffffffff168152600190910190602001808311610ed2575b5050505050815260200160018201548152602001600282018054610f20906117af565b80601f0160208091040260200160405190810160405280929190818152602001828054610f4c906117af565b8015610f995780601f10610f6e57610100808354040283529160200191610f99565b820191906000526020600020905b815481529060010190602001808311610f7c57829003601f168201915b50505050508152602001600382018054610fb2906117af565b80601f0160208091040260200160405190810160405280929190818152602001828054610fde906117af565b801561102b5780601f106110005761010080835404028352916020019161102b565b820191906000526020600020905b81548152906001019060200180831161100e57829003601f168201915b50505050508152602001600482018054806020026020016040519081016040528092919081815260200182805480156110b757602002820191906000526020600020906000905b82829054906101000a900467ffffffffffffffff1667ffffffffffffffff16815260200190600801906020826007010492830192600103820291508084116110725790505b50505050508152505081526020019060010190610e74565b50505050905090565b828054828255906000526020600020908101928215611152579160200282015b8281111561115257825182547fffffffffffffffffffffffff00000000000000000000000000000000000000001673ffffffffffffffffffffffffffffffffffffffff9091161782556020909201916001909101906110f8565b5061115e929150611214565b5090565b828054828255906000526020600020906003016004900481019282156111525791602002820160005b838211156111d757835183826101000a81548167ffffffffffffffff021916908367ffffffffffffffff160217905550926020019260080160208160070104928301926001030261118b565b801561120b5782816101000a81549067ffffffffffffffff02191690556008016020816007010492830192600103026111d7565b505061115e9291505b5b8082111561115e5760008155600101611215565b60008083601f84011261123b57600080fd5b50813567ffffffffffffffff81111561125357600080fd5b60208301915083602082850101111561126b57600080fd5b9250929050565b60008083601f84011261128457600080fd5b50813567ffffffffffffffff81111561129c57600080fd5b6020830191508360208260051b850101111561126b57600080fd5b60008060008060008060008060008060a08b8d0312156112d657600080fd5b8a3567ffffffffffffffff808211156112ee57600080fd5b6112fa8e838f01611229565b909c509a5060208d013591508082111561131357600080fd5b61131f8e838f01611229565b909a50985060408d013591508082111561133857600080fd5b6113448e838f01611272565b909850965060608d013591508082111561135d57600080fd5b6113698e838f01611272565b909650945060808d013591508082111561138257600080fd5b5061138f8d828e01611272565b915080935050809150509295989b9194979a5092959850565b7f4e487b7100000000000000000000000000000000000000000000000000000000600052604160045260246000fd5b803567ffffffffffffffff811681146113ef57600080fd5b919050565b6000806040838503121561140757600080fd5b823567ffffffffffffffff8082111561141f57600080fd5b818501915085601f83011261143357600080fd5b813581811115611445576114456113a8565b604051601f82017fffffffffffffffffffffffffffffffffffffffffffffffffffffffffffffffe0908116603f0116810190838211818310171561148b5761148b6113a8565b816040528281528860208487010111156114a457600080fd5b8260208601602083013760006020848301015280965050505050506114cb602084016113d7565b90509250929050565b6020808252825182820181905260009190848201906040850190845b8181101561151657835167ffffffffffffffff16835292840192918401916001016114f0565b50909695505050505050565b60006020828403121561153457600080fd5b813573ffffffffffffffffffffffffffffffffffffffff8116811461155857600080fd5b9392505050565b6000806020838503121561157257600080fd5b823567ffffffffffffffff81111561158957600080fd5b61159585828601611229565b90969095509350505050565b60005b838110156115bc5781810151838201526020016115a4565b50506000910152565b600081518084526115dd8160208601602086016115a1565b601f017fffffffffffffffffffffffffffffffffffffffffffffffffffffffffffffffe0169290920160200192915050565b60008151808452602080850194506020840160005b8381101561164a57815167ffffffffffffffff1687529582019590820190600101611624565b509495945050505050565b805160a080845281519084018190526000916020919082019060c0860190845b818110156116a757835173ffffffffffffffffffffffffffffffffffffffff1683529284019291840191600101611675565b5050602085015160208701526040850151925085810360408701526116cc81846115c5565b92505050606083015184820360608601526116e782826115c5565b91505060808301518482036080860152611701828261160f565b95945050505050565b6020815260006115586020830184611655565b600060208083016020845280855180835260408601915060408160051b87010192506020870160005b82811015611792577fffffffffffffffffffffffffffffffffffffffffffffffffffffffffffffffc0888603018452611780858351611655565b94509285019290850190600101611746565b5092979650505050505050565b8183823760009101908152919050565b600181811c908216806117c357607f821691505b6020821081036117fc577f4e487b7100000000000000000000000000000000000000000000000000000000600052602260045260246000fd5b50919050565b601f82111561184e576000816000526020600020601f850160051c8101602086101561182b5750805b601f850160051c820191505b8181101561184a57828155600101611837565b5050505b505050565b815167ffffffffffffffff81111561186d5761186d6113a8565b6118818161187b84546117af565b84611802565b602080601f8311600181146118d4576000841561189e5750858301515b7fffffffffffffffffffffffffffffffffffffffffffffffffffffffffffffffff600386901b1c1916600185901b17855561184a565b6000858152602081207fffffffffffffffffffffffffffffffffffffffffffffffffffffffffffffffe08616915b8281101561192157888601518255948401946001909101908401611902565b508582101561195d57878501517fffffffffffffffffffffffffffffffffffffffffffffffffffffffffffffffff600388901b60f8161c191681555b5050505050600190811b01905550565b7f4e487b7100000000000000000000000000000000000000000000000000000000600052603260045260246000fd5b60008083357fffffffffffffffffffffffffffffffffffffffffffffffffffffffffffffffe18436030181126119d157600080fd5b83018035915067ffffffffffffffff8211156119ec57600080fd5b60200191503681900382131561126b57600080fd5b67ffffffffffffffff831115611a1957611a196113a8565b611a2d83611a2783546117af565b83611802565b6000601f841160018114611a7f5760008515611a495750838201355b7fffffffffffffffffffffffffffffffffffffffffffffffffffffffffffffffff600387901b1c1916600186901b178355611b15565b6000838152602090207fffffffffffffffffffffffffffffffffffffffffffffffffffffffffffffffe0861690835b82811015611ace5786850135825560209485019460019092019101611aae565b5086821015611b09577fffffffffffffffffffffffffffffffffffffffffffffffffffffffffffffffff60f88860031b161c19848701351681555b505060018560011b0183555b5050505050565b7f4e487b7100000000000000000000000000000000000000000000000000000000600052601160045260246000fd5b600063ffffffff808316818103611b6457611b64611b1c565b6001019392505050565b60008251611b808184602087016115a1565b9190910192915050565b67ffffffffffffffff818116838216028082169190828114611bae57611bae611b1c565b50509291505056fea264697066735822122021a32aa74aff38f1a9bf7a42c9be10153f8a220a0d6c4d8500e0e6823981535f64736f6c63430008180033",
  "linkReferences": {},
  "deployedLinkReferences": {}
}